{
  "_format": "hh-sol-artifact-1",
  "contractName": "BeamDAO",
  "sourceName": "contracts/beam.sol",
  "abi": [
    {
      "inputs": [],
      "name": "ReentrancyGuardReentrantCall",
      "type": "error"
    },
    {
      "inputs": [
        {
          "internalType": "address",
          "name": "token",
          "type": "address"
        }
      ],
      "name": "SafeERC20FailedOperation",
      "type": "error"
    },
    {
      "anonymous": false,
      "inputs": [
        {
          "indexed": true,
          "internalType": "uint256",
          "name": "projectId",
          "type": "uint256"
        },
        {
          "indexed": true,
          "internalType": "address",
          "name": "user",
          "type": "address"
        },
        {
          "indexed": true,
          "internalType": "address",
          "name": "token",
          "type": "address"
        },
        {
          "indexed": false,
          "internalType": "uint256",
          "name": "amount",
          "type": "uint256"
        },
        {
          "indexed": false,
          "internalType": "uint256",
          "name": "penalty",
          "type": "uint256"
        }
      ],
      "name": "EmergencyUnstaked",
      "type": "event"
    },
    {
      "anonymous": false,
      "inputs": [
        {
          "indexed": true,
          "internalType": "uint256",
          "name": "projectId",
          "type": "uint256"
        },
        {
          "indexed": true,
          "internalType": "address",
          "name": "creator",
          "type": "address"
        },
        {
          "indexed": false,
          "internalType": "uint256",
          "name": "timestamp",
          "type": "uint256"
        }
      ],
      "name": "ProjectCreated",
      "type": "event"
    },
    {
      "anonymous": false,
      "inputs": [
        {
          "indexed": true,
          "internalType": "uint256",
          "name": "projectId",
          "type": "uint256"
        },
        {
          "indexed": true,
          "internalType": "address",
          "name": "updater",
          "type": "address"
        }
      ],
      "name": "ProjectUpdated",
      "type": "event"
    },
    {
      "anonymous": false,
      "inputs": [
        {
          "indexed": true,
          "internalType": "uint256",
          "name": "proposalId",
          "type": "uint256"
        },
        {
          "indexed": true,
          "internalType": "uint256",
          "name": "projectId",
          "type": "uint256"
        },
        {
          "indexed": false,
          "internalType": "uint256",
          "name": "yesVotes",
          "type": "uint256"
        },
        {
          "indexed": false,
          "internalType": "uint256",
          "name": "noVotes",
          "type": "uint256"
        },
        {
          "indexed": false,
          "internalType": "uint256",
          "name": "timestamp",
          "type": "uint256"
        }
      ],
      "name": "ProposalCompleted",
      "type": "event"
    },
    {
      "anonymous": false,
      "inputs": [
        {
          "indexed": true,
          "internalType": "uint256",
          "name": "proposalId",
          "type": "uint256"
        },
        {
          "indexed": true,
          "internalType": "uint256",
          "name": "projectId",
          "type": "uint256"
        },
        {
          "indexed": true,
          "internalType": "address",
          "name": "creator",
          "type": "address"
        },
        {
          "indexed": false,
          "internalType": "uint256",
          "name": "timestamp",
          "type": "uint256"
        }
      ],
      "name": "ProposalCreated",
      "type": "event"
    },
    {
      "anonymous": false,
      "inputs": [
        {
          "indexed": true,
          "internalType": "uint256",
          "name": "projectId",
          "type": "uint256"
        },
        {
          "indexed": true,
          "internalType": "address",
          "name": "user",
          "type": "address"
        },
        {
          "indexed": true,
          "internalType": "address",
          "name": "token",
          "type": "address"
        },
        {
          "indexed": false,
          "internalType": "uint256",
          "name": "amount",
          "type": "uint256"
        },
        {
          "indexed": false,
          "internalType": "uint256",
          "name": "timestamp",
          "type": "uint256"
        }
      ],
      "name": "Staked",
      "type": "event"
    },
    {
      "anonymous": false,
      "inputs": [
        {
          "indexed": true,
          "internalType": "uint256",
          "name": "projectId",
          "type": "uint256"
        },
        {
          "indexed": true,
          "internalType": "address",
          "name": "user",
          "type": "address"
        },
        {
          "indexed": true,
          "internalType": "address",
          "name": "token",
          "type": "address"
        },
        {
          "indexed": false,
          "internalType": "uint256",
          "name": "amount",
          "type": "uint256"
        }
      ],
      "name": "Unstaked",
      "type": "event"
    },
    {
      "anonymous": false,
      "inputs": [
        {
          "indexed": true,
          "internalType": "uint256",
          "name": "proposalId",
          "type": "uint256"
        },
        {
          "indexed": true,
          "internalType": "address",
          "name": "voter",
          "type": "address"
        },
        {
          "indexed": false,
          "internalType": "bool",
          "name": "support",
          "type": "bool"
        },
        {
          "indexed": false,
          "internalType": "uint256",
          "name": "power",
          "type": "uint256"
        },
        {
          "indexed": false,
          "internalType": "uint256",
          "name": "timestamp",
          "type": "uint256"
        }
      ],
      "name": "Voted",
      "type": "event"
    },
    {
      "inputs": [],
      "name": "EMERGENCY_PENALTY",
      "outputs": [
        {
          "internalType": "uint256",
          "name": "",
          "type": "uint256"
        }
      ],
      "stateMutability": "view",
      "type": "function"
    },
    {
      "inputs": [],
      "name": "UNSTAKING_PERIOD",
      "outputs": [
        {
          "internalType": "uint256",
          "name": "",
          "type": "uint256"
        }
      ],
      "stateMutability": "view",
      "type": "function"
    },
    {
      "inputs": [],
      "name": "VOTING_DURATION",
      "outputs": [
        {
          "internalType": "uint256",
          "name": "",
          "type": "uint256"
        }
      ],
      "stateMutability": "view",
      "type": "function"
    },
    {
      "inputs": [
        {
          "internalType": "uint256",
          "name": "projectId",
          "type": "uint256"
        },
        {
          "internalType": "address",
          "name": "user",
          "type": "address"
        },
        {
          "internalType": "address",
          "name": "token",
          "type": "address"
        }
      ],
      "name": "canCompleteUnstake",
      "outputs": [
        {
          "internalType": "bool",
          "name": "",
          "type": "bool"
        }
      ],
      "stateMutability": "view",
      "type": "function"
    },
    {
      "inputs": [
        {
          "internalType": "uint256",
          "name": "proposalId",
          "type": "uint256"
        }
      ],
      "name": "canFinalizeProposal",
      "outputs": [
        {
          "internalType": "bool",
          "name": "",
          "type": "bool"
        }
      ],
      "stateMutability": "view",
      "type": "function"
    },
    {
      "inputs": [
        {
          "internalType": "uint256",
          "name": "projectId",
          "type": "uint256"
        },
        {
          "internalType": "address",
          "name": "token",
          "type": "address"
        }
      ],
      "name": "completeUnstake",
      "outputs": [],
      "stateMutability": "nonpayable",
      "type": "function"
    },
    {
      "inputs": [
        {
          "internalType": "string",
          "name": "name",
          "type": "string"
        },
        {
          "internalType": "string",
          "name": "logoURI",
          "type": "string"
        },
        {
          "internalType": "string",
          "name": "backdropURI",
          "type": "string"
        },
        {
          "internalType": "string",
          "name": "bio",
          "type": "string"
        },
        {
          "internalType": "address[]",
          "name": "governanceTokens",
          "type": "address[]"
        }
      ],
      "name": "createProject",
      "outputs": [
        {
          "internalType": "uint256",
          "name": "",
          "type": "uint256"
        }
      ],
      "stateMutability": "nonpayable",
      "type": "function"
    },
    {
      "inputs": [
        {
          "internalType": "uint256",
          "name": "projectId",
          "type": "uint256"
        },
        {
          "internalType": "string",
          "name": "title",
          "type": "string"
        },
        {
          "internalType": "string",
          "name": "description",
          "type": "string"
        }
      ],
      "name": "createProposal",
      "outputs": [
        {
          "internalType": "uint256",
          "name": "",
          "type": "uint256"
        }
      ],
      "stateMutability": "nonpayable",
      "type": "function"
    },
    {
      "inputs": [
        {
          "internalType": "uint256",
          "name": "projectId",
          "type": "uint256"
        },
        {
          "internalType": "address",
          "name": "token",
          "type": "address"
        }
      ],
      "name": "emergencyUnstake",
      "outputs": [],
      "stateMutability": "nonpayable",
      "type": "function"
    },
    {
      "inputs": [
        {
          "internalType": "uint256",
          "name": "proposalId",
          "type": "uint256"
        }
      ],
      "name": "finalizeProposal",
      "outputs": [],
      "stateMutability": "nonpayable",
      "type": "function"
    },
    {
      "inputs": [
        {
          "internalType": "uint256",
          "name": "projectId",
          "type": "uint256"
        }
      ],
      "name": "getProject",
      "outputs": [
        {
          "internalType": "uint256",
          "name": "id",
          "type": "uint256"
        },
        {
          "internalType": "string",
          "name": "name",
          "type": "string"
        },
        {
          "internalType": "string",
          "name": "logoURI",
          "type": "string"
        },
        {
          "internalType": "string",
          "name": "backdropURI",
          "type": "string"
        },
        {
          "internalType": "string",
          "name": "bio",
          "type": "string"
        },
        {
          "internalType": "address",
          "name": "creator",
          "type": "address"
        },
        {
          "internalType": "uint256",
          "name": "totalStaked",
          "type": "uint256"
        },
        {
          "internalType": "uint256",
          "name": "proposalCount",
          "type": "uint256"
        },
        {
          "internalType": "uint256",
          "name": "createdAt",
          "type": "uint256"
        },
        {
          "internalType": "bool",
          "name": "active",
          "type": "bool"
        },
        {
          "internalType": "address[]",
          "name": "governanceTokens",
          "type": "address[]"
        }
      ],
      "stateMutability": "view",
      "type": "function"
    },
    {
      "inputs": [
        {
          "internalType": "uint256",
          "name": "projectId",
          "type": "uint256"
        }
      ],
      "name": "getProjectActivities",
      "outputs": [
        {
          "components": [
            {
              "internalType": "address",
              "name": "user",
              "type": "address"
            },
            {
              "internalType": "enum BeamDAO.ActivityType",
              "name": "activityType",
              "type": "uint8"
            },
            {
              "internalType": "uint256",
              "name": "timestamp",
              "type": "uint256"
            },
            {
              "internalType": "uint256",
              "name": "amount",
              "type": "uint256"
            }
          ],
          "internalType": "struct BeamDAO.Activity[]",
          "name": "",
          "type": "tuple[]"
        }
      ],
      "stateMutability": "view",
      "type": "function"
    },
    {
      "inputs": [],
      "name": "getProjectCount",
      "outputs": [
        {
          "internalType": "uint256",
          "name": "",
          "type": "uint256"
        }
      ],
      "stateMutability": "view",
      "type": "function"
    },
    {
      "inputs": [
        {
          "internalType": "uint256",
          "name": "projectId",
          "type": "uint256"
        }
      ],
      "name": "getProjectGovernanceTokens",
      "outputs": [
        {
          "internalType": "address[]",
          "name": "",
          "type": "address[]"
        }
      ],
      "stateMutability": "view",
      "type": "function"
    },
    {
      "inputs": [
        {
          "internalType": "uint256",
          "name": "projectId",
          "type": "uint256"
        }
      ],
      "name": "getProjectProposals",
      "outputs": [
        {
          "internalType": "uint256[]",
          "name": "",
          "type": "uint256[]"
        }
      ],
      "stateMutability": "view",
      "type": "function"
    },
    {
      "inputs": [
        {
          "internalType": "uint256",
          "name": "projectId",
          "type": "uint256"
        }
      ],
      "name": "getProjectStake",
      "outputs": [
        {
          "internalType": "uint256",
          "name": "totalStaked",
          "type": "uint256"
        }
      ],
      "stateMutability": "view",
      "type": "function"
    },
    {
      "inputs": [
        {
          "internalType": "uint256",
          "name": "projectId",
          "type": "uint256"
        }
      ],
      "name": "getProjectStakerCount",
      "outputs": [
        {
          "internalType": "uint256",
          "name": "",
          "type": "uint256"
        }
      ],
      "stateMutability": "view",
      "type": "function"
    },
    {
      "inputs": [
        {
          "internalType": "uint256",
          "name": "projectId",
          "type": "uint256"
        }
      ],
      "name": "getProjectStakers",
      "outputs": [
        {
          "internalType": "address[]",
          "name": "",
          "type": "address[]"
        }
      ],
      "stateMutability": "view",
      "type": "function"
    },
    {
      "inputs": [
        {
          "internalType": "uint256",
          "name": "proposalId",
          "type": "uint256"
        }
      ],
      "name": "getProposalActivities",
      "outputs": [
        {
          "components": [
            {
              "internalType": "address",
              "name": "user",
              "type": "address"
            },
            {
              "internalType": "enum BeamDAO.ActivityType",
              "name": "activityType",
              "type": "uint8"
            },
            {
              "internalType": "uint256",
              "name": "timestamp",
              "type": "uint256"
            },
            {
              "internalType": "uint256",
              "name": "amount",
              "type": "uint256"
            }
          ],
          "internalType": "struct BeamDAO.Activity[]",
          "name": "",
          "type": "tuple[]"
        }
      ],
      "stateMutability": "view",
      "type": "function"
    },
    {
      "inputs": [],
      "name": "getProposalCount",
      "outputs": [
        {
          "internalType": "uint256",
          "name": "",
          "type": "uint256"
        }
      ],
      "stateMutability": "view",
      "type": "function"
    },
    {
      "inputs": [
        {
          "internalType": "uint256",
          "name": "proposalId",
          "type": "uint256"
        }
      ],
      "name": "getProposalDetails",
      "outputs": [
        {
          "internalType": "uint256",
          "name": "id",
          "type": "uint256"
        },
        {
          "internalType": "uint256",
          "name": "projectId",
          "type": "uint256"
        },
        {
          "internalType": "string",
          "name": "title",
          "type": "string"
        },
        {
          "internalType": "string",
          "name": "description",
          "type": "string"
        },
        {
          "internalType": "uint256",
          "name": "yesVotes",
          "type": "uint256"
        },
        {
          "internalType": "uint256",
          "name": "noVotes",
          "type": "uint256"
        },
        {
          "internalType": "uint256",
          "name": "totalVoted",
          "type": "uint256"
        },
        {
          "internalType": "uint256",
          "name": "startTime",
          "type": "uint256"
        },
        {
          "internalType": "uint256",
          "name": "endTime",
          "type": "uint256"
        },
        {
          "internalType": "bool",
          "name": "completed",
          "type": "bool"
        },
        {
          "internalType": "address",
          "name": "creator",
          "type": "address"
        }
      ],
      "stateMutability": "view",
      "type": "function"
    },
    {
      "inputs": [
        {
          "internalType": "uint256",
          "name": "proposalId",
          "type": "uint256"
        }
      ],
      "name": "getProposalResult",
      "outputs": [
        {
          "internalType": "uint256",
          "name": "yesVotes",
          "type": "uint256"
        },
        {
          "internalType": "uint256",
          "name": "noVotes",
          "type": "uint256"
        },
        {
          "internalType": "uint256",
          "name": "totalVoted",
          "type": "uint256"
        },
        {
          "internalType": "uint256",
          "name": "yesPercentage",
          "type": "uint256"
        },
        {
          "internalType": "uint256",
          "name": "noPercentage",
          "type": "uint256"
        },
        {
          "internalType": "bool",
          "name": "isCompleted",
          "type": "bool"
        },
        {
          "internalType": "uint256",
          "name": "timeRemaining",
          "type": "uint256"
        }
      ],
      "stateMutability": "view",
      "type": "function"
    },
    {
      "inputs": [
        {
          "internalType": "uint256",
          "name": "proposalId",
          "type": "uint256"
        }
      ],
      "name": "getProposalVoterCount",
      "outputs": [
        {
          "internalType": "uint256",
          "name": "",
          "type": "uint256"
        }
      ],
      "stateMutability": "view",
      "type": "function"
    },
    {
      "inputs": [
        {
          "internalType": "uint256",
          "name": "proposalId",
          "type": "uint256"
        }
      ],
      "name": "getProposalVoters",
      "outputs": [
        {
          "internalType": "address[]",
          "name": "",
          "type": "address[]"
        }
      ],
      "stateMutability": "view",
      "type": "function"
    },
    {
      "inputs": [
        {
          "internalType": "uint256",
          "name": "proposalId",
          "type": "uint256"
        }
      ],
      "name": "getProposalVotes",
      "outputs": [
        {
          "internalType": "uint256",
          "name": "yesVotes",
          "type": "uint256"
        },
        {
          "internalType": "uint256",
          "name": "noVotes",
          "type": "uint256"
        },
        {
          "internalType": "uint256",
          "name": "totalVoted",
          "type": "uint256"
        }
      ],
      "stateMutability": "view",
      "type": "function"
    },
    {
      "inputs": [
        {
          "internalType": "address",
          "name": "user",
          "type": "address"
        }
      ],
      "name": "getUserCreatedProposals",
      "outputs": [
        {
          "internalType": "uint256[]",
          "name": "",
          "type": "uint256[]"
        }
      ],
      "stateMutability": "view",
      "type": "function"
    },
    {
      "inputs": [
        {
          "internalType": "address",
          "name": "user",
          "type": "address"
        },
        {
          "internalType": "uint256",
          "name": "projectId",
          "type": "uint256"
        }
      ],
      "name": "getUserStake",
      "outputs": [
        {
          "internalType": "uint256",
          "name": "totalStaked",
          "type": "uint256"
        }
      ],
      "stateMutability": "view",
      "type": "function"
    },
    {
      "inputs": [
        {
          "internalType": "uint256",
          "name": "projectId",
          "type": "uint256"
        },
        {
          "internalType": "address",
          "name": "user",
          "type": "address"
        },
        {
          "internalType": "address",
          "name": "token",
          "type": "address"
        }
      ],
      "name": "getUserStakingInfo",
      "outputs": [
        {
          "internalType": "uint256",
          "name": "stakedAmount",
          "type": "uint256"
        },
        {
          "internalType": "uint256",
          "name": "unstakingAmount",
          "type": "uint256"
        },
        {
          "internalType": "uint256",
          "name": "unstakingStartTime",
          "type": "uint256"
        }
      ],
      "stateMutability": "view",
      "type": "function"
    },
    {
      "inputs": [
        {
          "internalType": "uint256",
          "name": "proposalId",
          "type": "uint256"
        },
        {
          "internalType": "address",
          "name": "user",
          "type": "address"
        }
      ],
      "name": "getUserVoteOnProposal",
      "outputs": [
        {
          "internalType": "bool",
          "name": "hasVotedOnProposal",
          "type": "bool"
        },
        {
          "internalType": "bool",
          "name": "voteSupport",
          "type": "bool"
        },
        {
          "internalType": "uint256",
          "name": "votingPowerUsed",
          "type": "uint256"
        }
      ],
      "stateMutability": "view",
      "type": "function"
    },
    {
      "inputs": [
        {
          "internalType": "address",
          "name": "user",
          "type": "address"
        },
        {
          "internalType": "uint256",
          "name": "projectId",
          "type": "uint256"
        }
      ],
      "name": "getUserVotingPower",
      "outputs": [
        {
          "internalType": "uint256",
          "name": "power",
          "type": "uint256"
        }
      ],
      "stateMutability": "view",
      "type": "function"
    },
    {
      "inputs": [
        {
          "internalType": "uint256",
          "name": "",
          "type": "uint256"
        },
        {
          "internalType": "address",
          "name": "",
          "type": "address"
        }
      ],
      "name": "hasVoted",
      "outputs": [
        {
          "internalType": "bool",
          "name": "",
          "type": "bool"
        }
      ],
      "stateMutability": "view",
      "type": "function"
    },
    {
      "inputs": [
        {
          "internalType": "uint256",
          "name": "proposalId",
          "type": "uint256"
        }
      ],
      "name": "isProposalActive",
      "outputs": [
        {
          "internalType": "bool",
          "name": "",
          "type": "bool"
        }
      ],
      "stateMutability": "view",
      "type": "function"
    },
    {
      "inputs": [
        {
          "internalType": "uint256",
          "name": "proposalId",
          "type": "uint256"
        }
      ],
      "name": "isProposalCompleted",
      "outputs": [
        {
          "internalType": "bool",
          "name": "",
          "type": "bool"
        }
      ],
      "stateMutability": "view",
      "type": "function"
    },
    {
      "inputs": [
        {
          "internalType": "uint256",
          "name": "projectId",
          "type": "uint256"
        },
        {
          "internalType": "address",
          "name": "token",
          "type": "address"
        }
      ],
      "name": "isTokenAccepted",
      "outputs": [
        {
          "internalType": "bool",
          "name": "",
          "type": "bool"
        }
      ],
      "stateMutability": "view",
      "type": "function"
    },
    {
      "inputs": [
        {
          "internalType": "uint256",
          "name": "",
          "type": "uint256"
        },
        {
          "internalType": "uint256",
          "name": "",
          "type": "uint256"
        }
      ],
      "name": "projectActivities",
      "outputs": [
        {
          "internalType": "address",
          "name": "user",
          "type": "address"
        },
        {
          "internalType": "enum BeamDAO.ActivityType",
          "name": "activityType",
          "type": "uint8"
        },
        {
          "internalType": "uint256",
          "name": "timestamp",
          "type": "uint256"
        },
        {
          "internalType": "uint256",
          "name": "amount",
          "type": "uint256"
        }
      ],
      "stateMutability": "view",
      "type": "function"
    },
    {
      "inputs": [
        {
          "internalType": "uint256",
          "name": "",
          "type": "uint256"
        }
      ],
      "name": "projects",
      "outputs": [
        {
          "internalType": "uint256",
          "name": "id",
          "type": "uint256"
        },
        {
          "internalType": "string",
          "name": "name",
          "type": "string"
        },
        {
          "internalType": "string",
          "name": "logoURI",
          "type": "string"
        },
        {
          "internalType": "string",
          "name": "backdropURI",
          "type": "string"
        },
        {
          "internalType": "string",
          "name": "bio",
          "type": "string"
        },
        {
          "internalType": "address",
          "name": "creator",
          "type": "address"
        },
        {
          "internalType": "uint256",
          "name": "totalStaked",
          "type": "uint256"
        },
        {
          "internalType": "uint256",
          "name": "proposalCount",
          "type": "uint256"
        },
        {
          "internalType": "uint256",
          "name": "createdAt",
          "type": "uint256"
        },
        {
          "internalType": "bool",
          "name": "active",
          "type": "bool"
        }
      ],
      "stateMutability": "view",
      "type": "function"
    },
    {
      "inputs": [
        {
          "internalType": "uint256",
          "name": "",
          "type": "uint256"
        },
        {
          "internalType": "uint256",
          "name": "",
          "type": "uint256"
        }
      ],
      "name": "proposalActivities",
      "outputs": [
        {
          "internalType": "address",
          "name": "user",
          "type": "address"
        },
        {
          "internalType": "enum BeamDAO.ActivityType",
          "name": "activityType",
          "type": "uint8"
        },
        {
          "internalType": "uint256",
          "name": "timestamp",
          "type": "uint256"
        },
        {
          "internalType": "uint256",
          "name": "amount",
          "type": "uint256"
        }
      ],
      "stateMutability": "view",
      "type": "function"
    },
    {
      "inputs": [
        {
          "internalType": "uint256",
          "name": "",
          "type": "uint256"
        }
      ],
      "name": "proposals",
      "outputs": [
        {
          "internalType": "uint256",
          "name": "id",
          "type": "uint256"
        },
        {
          "internalType": "uint256",
          "name": "projectId",
          "type": "uint256"
        },
        {
          "internalType": "string",
          "name": "title",
          "type": "string"
        },
        {
          "internalType": "string",
          "name": "description",
          "type": "string"
        },
        {
          "internalType": "uint256",
          "name": "yesVotes",
          "type": "uint256"
        },
        {
          "internalType": "uint256",
          "name": "noVotes",
          "type": "uint256"
        },
        {
          "internalType": "uint256",
          "name": "totalVoted",
          "type": "uint256"
        },
        {
          "internalType": "uint256",
          "name": "startTime",
          "type": "uint256"
        },
        {
          "internalType": "uint256",
          "name": "endTime",
          "type": "uint256"
        },
        {
          "internalType": "bool",
          "name": "completed",
          "type": "bool"
        },
        {
          "internalType": "address",
          "name": "creator",
          "type": "address"
        }
      ],
      "stateMutability": "view",
      "type": "function"
    },
    {
      "inputs": [
        {
          "internalType": "uint256",
          "name": "projectId",
          "type": "uint256"
        },
        {
          "internalType": "address",
          "name": "token",
          "type": "address"
        },
        {
          "internalType": "uint256",
          "name": "amount",
          "type": "uint256"
        }
      ],
      "name": "stake",
      "outputs": [],
      "stateMutability": "nonpayable",
      "type": "function"
    },
    {
      "inputs": [
        {
          "internalType": "uint256",
          "name": "",
          "type": "uint256"
        },
        {
          "internalType": "address",
          "name": "",
          "type": "address"
        },
        {
          "internalType": "address",
          "name": "",
          "type": "address"
        }
      ],
      "name": "stakingInfo",
      "outputs": [
        {
          "internalType": "uint256",
          "name": "stakedAmount",
          "type": "uint256"
        },
        {
          "internalType": "uint256",
          "name": "unstakingAmount",
          "type": "uint256"
        },
        {
          "internalType": "uint256",
          "name": "unstakingStartTime",
          "type": "uint256"
        }
      ],
      "stateMutability": "view",
      "type": "function"
    },
    {
      "inputs": [
        {
          "internalType": "uint256",
          "name": "",
          "type": "uint256"
        },
        {
          "internalType": "address",
          "name": "",
          "type": "address"
        }
      ],
      "name": "totalStakedPerToken",
      "outputs": [
        {
          "internalType": "uint256",
          "name": "",
          "type": "uint256"
        }
      ],
      "stateMutability": "view",
      "type": "function"
    },
    {
      "inputs": [
        {
          "internalType": "uint256",
          "name": "projectId",
          "type": "uint256"
        },
        {
          "internalType": "address",
          "name": "token",
          "type": "address"
        },
        {
          "internalType": "uint256",
          "name": "amount",
          "type": "uint256"
        }
      ],
      "name": "unstake",
      "outputs": [],
      "stateMutability": "nonpayable",
      "type": "function"
    },
    {
      "inputs": [
        {
          "internalType": "uint256",
          "name": "projectId",
          "type": "uint256"
        },
        {
          "internalType": "string",
          "name": "name",
          "type": "string"
        },
        {
          "internalType": "string",
          "name": "logoURI",
          "type": "string"
        },
        {
          "internalType": "string",
          "name": "backdropURI",
          "type": "string"
        },
        {
          "internalType": "string",
          "name": "bio",
          "type": "string"
        }
      ],
      "name": "updateProject",
      "outputs": [],
      "stateMutability": "nonpayable",
      "type": "function"
    },
    {
      "inputs": [
        {
          "internalType": "uint256",
          "name": "proposalId",
          "type": "uint256"
        },
        {
          "internalType": "bool",
          "name": "support",
          "type": "bool"
        }
      ],
      "name": "vote",
      "outputs": [],
      "stateMutability": "nonpayable",
      "type": "function"
    },
    {
      "inputs": [
        {
          "internalType": "uint256",
          "name": "",
          "type": "uint256"
        },
        {
          "internalType": "address",
          "name": "",
          "type": "address"
        }
      ],
      "name": "voteChoice",
      "outputs": [
        {
          "internalType": "bool",
          "name": "",
          "type": "bool"
        }
      ],
      "stateMutability": "view",
      "type": "function"
    },
    {
      "inputs": [
        {
          "internalType": "uint256",
          "name": "",
          "type": "uint256"
        },
        {
          "internalType": "address",
          "name": "",
          "type": "address"
        }
      ],
      "name": "votingPowerSnapshot",
      "outputs": [
        {
          "internalType": "uint256",
          "name": "",
          "type": "uint256"
        }
      ],
      "stateMutability": "view",
      "type": "function"
    }
  ],
  "bytecode": "0x6080604052348015600f57600080fd5b506001600055613b99806100246000396000f3fe608060405234801561001057600080fd5b506004361061028a5760003560e01c80637b222de51161015c578063bef9549c116100ce578063f0f3f2c811610087578063f0f3f2c814610763578063f373932c1461078d578063f5367836146107a0578063f91f88f7146107b3578063fb468855146107fd578063fb6d4c9c1461082b57600080fd5b8063bef9549c146106fc578063c08cc02d1461070f578063c9d27afe14610717578063cec695fa1461072a578063cf128d381461073d578063e0b03d681461075057600080fd5b8063a68f34f711610120578063a68f34f7146105f4578063ac96128914610607578063ae64ebfe1461062a578063b07a00521461063d578063b3c0685514610650578063b6a472a41461067557600080fd5b80637b222de5146105715780638ced100f146105845780638dde5cb914610597578063a28f5d75146105d7578063a438d208146105ea57600080fd5b806343859632116102005780635f702fe2116101b95780635f702fe2146104fb578063688253161461050e5780636a7cc6d41461052e5780636e9c931c1461054157806376d07174146105545780637a5e3a261461055e57600080fd5b8063438596321461041f57806343d558ed1461044d57806347c661401461047857806351a7c716146104a85780635652077c146104bd5780635a6fabb8146104d057600080fd5b806317de28a01161025257806317de28a01461036257806328941ed3146103755780632a16e0a9146103db5780633103e859146103e45780633b4d01a7146104045780633bcff3b01461041757600080fd5b8063013cf08b1461028f5780630e20bf3b146102c25780630eee2975146102e3578063107046bd14610303578063164b3d2f1461032c575b600080fd5b6102a261029d3660046130b4565b61084e565b6040516102b99b9a99989796959493929190613113565b60405180910390f35b6102d56102d03660046132e8565b6109c1565b6040519081526020016102b9565b6102f66102f13660046130b4565b610d4b565b6040516102b99190613407565b6103166103113660046130b4565b610e19565b6040516102b99a99989796959493929190613480565b61035261033a3660046130b4565b60009081526007602052604090206008015442111590565b60405190151581526020016102b9565b6103526103703660046130b4565b611094565b6103c0610383366004613510565b60009283526006602090815260408085206001600160a01b0394851686528252808520929093168452529020805460018201546002909201549092565b604080519384526020840192909252908201526060016102b9565b6102d561138881565b6103f76103f23660046130b4565b6110c1565b6040516102b99190613591565b6102a26104123660046130b4565b6110e1565b6001546102d5565b61035261042d3660046135a4565b600960209081526000928352604080842090915290825290205460ff1681565b6102d561045b3660046135a4565b600a60209081526000928352604080842090915290825290205481565b6103c06104863660046130b4565b6000908152600760205260409020600481015460058201546006909201549092565b6104bb6104b63660046135d0565b61129b565b005b6104bb6104cb3660046130b4565b611525565b6102d56104de3660046135a4565b600560209081526000928352604080842090915290825290205481565b6103f76105093660046130b4565b611757565b61052161051c3660046130b4565b611771565b6040516102b99190613606565b6102d561053c3660046130b4565b61178b565b6104bb61054f3660046135d0565b6117a2565b6102d56206978081565b6102d561056c36600461363e565b611a4f565b6102d561057f3660046136ae565b611e4f565b6104bb6105923660046135a4565b611efc565b6103c06105a5366004613510565b600660209081526000938452604080852082529284528284209052825290208054600182015460029092015490919083565b6104bb6105e53660046135a4565b6120b4565b6102d562093a8081565b6103f76106023660046130b4565b6122be565b61061a6106153660046136d8565b6122d8565b6040516102b994939291906136fa565b6103526106383660046135a4565b61232d565b61052161064b366004613729565b612345565b61035261065e3660046130b4565b600090815260076020526040902060080154421190565b6106df6106833660046135a4565b60008281526009602090815260408083206001600160a01b039490941680845293825280832054858452600b8352818420858552835281842054958452600a83528184209484529390915290205460ff91821693919092169190565b6040805193151584529115156020840152908201526060016102b9565b6104bb61070a366004613744565b612369565b6002546102d5565b6104bb6107253660046137fd565b612519565b6102d56107383660046136ae565b6128d5565b61061a61074b3660046136d8565b612978565b6102d561075e3660046130b4565b612994565b6107766107713660046130b4565b6129ab565b6040516102b99b9a99989796959493929190613832565b6102f661079b3660046130b4565b612cb4565b6103526107ae366004613510565b612d77565b6107c66107c13660046130b4565b612dd3565b6040805197885260208801969096529486019390935260608501919091526080840152151560a083015260c082015260e0016102b9565b61035261080b3660046135a4565b600b60209081526000928352604080842090915290825290205460ff1681565b6102d56108393660046130b4565b60009081526003602052604090206006015490565b60076020526000908152604090208054600182015460028301805492939192610876906138dc565b80601f01602080910402602001604051908101604052809291908181526020018280546108a2906138dc565b80156108ef5780601f106108c4576101008083540402835291602001916108ef565b820191906000526020600020905b8154815290600101906020018083116108d257829003601f168201915b505050505090806003018054610904906138dc565b80601f0160208091040260200160405190810160405280929190818152602001828054610930906138dc565b801561097d5780601f106109525761010080835404028352916020019161097d565b820191906000526020600020905b81548152906001019060200180831161096057829003601f168201915b5050505060048301546005840154600685015460078601546008870154600990970154959693959294509092909160ff81169061010090046001600160a01b03168b565b600080865111610a0f5760405162461bcd60e51b81526020600482015260146024820152734e616d652063616e6e6f7420626520656d70747960601b60448201526064015b60405180910390fd5b6000825111610a6f5760405162461bcd60e51b815260206004820152602660248201527f4174206c65617374206f6e6520676f7665726e616e636520746f6b656e2072656044820152651c5d5a5c995960d21b6064820152608401610a06565b60018054906000610a7f8361392c565b909155505060018054604080516101408101825282815260208082018b81528284018b9052606083018a9052608083018990523360a0840152600060c0840181905260e0840181905242610100850152610120840187905285815260039092529290208151815591519293909290820190610afa9082613993565b5060408201516002820190610b0f9082613993565b5060608201516003820190610b249082613993565b5060808201516004820190610b399082613993565b5060a08201516005820180546001600160a01b0319166001600160a01b0390921691909117905560c0820151600682015560e082015160078201556101008201516008820155610120909101516009909101805460ff191691151591909117905560005b8351811015610c605760006001600160a01b0316848281518110610bc357610bc3613a51565b60200260200101516001600160a01b031603610c195760405162461bcd60e51b8152602060048201526015602482015274496e76616c696420746f6b656e206164647265737360581b6044820152606401610a06565b610c57848281518110610c2e57610c2e613a51565b602002602001015160046000858152602001908152602001600020612e7690919063ffffffff16565b50600101610b9d565b506000818152600c602090815260408083208151608081018352338152808401858152429382019390935260608101859052815460018101835591855292909320825160039094020180546001600160a01b039094166001600160a01b03198516811782559151929390929183916001600160a81b03191617600160a01b836004811115610cf057610cf06133cf565b0217905550604082810151600183015560609092015160029091015551428152339082907f1b9d0946c0a6f3b3a57782ad25a4553bd5bcf1f1a252068eafc757670aad573a9060200160405180910390a39695505050505050565b6060600d6000838152602001908152602001600020805480602002602001604051908101604052809291908181526020016000905b82821015610e0e57600084815260209081902060408051608081019091526003850290910180546001600160a01b03811683529192909190830190600160a01b900460ff166004811115610dd657610dd66133cf565b6004811115610de757610de76133cf565b81526020016001820154815260200160028201548152505081526020019060010190610d80565b505050509050919050565b60036020526000908152604090208054600182018054919291610e3b906138dc565b80601f0160208091040260200160405190810160405280929190818152602001828054610e67906138dc565b8015610eb45780601f10610e8957610100808354040283529160200191610eb4565b820191906000526020600020905b815481529060010190602001808311610e9757829003601f168201915b505050505090806002018054610ec9906138dc565b80601f0160208091040260200160405190810160405280929190818152602001828054610ef5906138dc565b8015610f425780601f10610f1757610100808354040283529160200191610f42565b820191906000526020600020905b815481529060010190602001808311610f2557829003601f168201915b505050505090806003018054610f57906138dc565b80601f0160208091040260200160405190810160405280929190818152602001828054610f83906138dc565b8015610fd05780601f10610fa557610100808354040283529160200191610fd0565b820191906000526020600020905b815481529060010190602001808311610fb357829003601f168201915b505050505090806004018054610fe5906138dc565b80601f0160208091040260200160405190810160405280929190818152602001828054611011906138dc565b801561105e5780601f106110335761010080835404028352916020019161105e565b820191906000526020600020905b81548152906001019060200180831161104157829003601f168201915b505050600584015460068501546007860154600887015460099097015495966001600160a01b0390931695919450925060ff168a565b60008181526007602052604081206008810154421180156110ba5750600981015460ff16155b9392505050565b60008181526004602052604090206060906110db90612e8b565b92915050565b600080606080600080600080600080600080600760008e81526020019081526020016000209050806000015481600101548260020183600301846004015485600501548660060154876007015488600801548960090160009054906101000a900460ff168a60090160019054906101000a90046001600160a01b0316888054611169906138dc565b80601f0160208091040260200160405190810160405280929190818152602001828054611195906138dc565b80156111e25780601f106111b7576101008083540402835291602001916111e2565b820191906000526020600020905b8154815290600101906020018083116111c557829003601f168201915b505050505098508780546111f5906138dc565b80601f0160208091040260200160405190810160405280929190818152602001828054611221906138dc565b801561126e5780601f106112435761010080835404028352916020019161126e565b820191906000526020600020905b81548152906001019060200180831161125157829003601f168201915b505050505097509b509b509b509b509b509b509b509b509b509b509b505091939597999b90929496989a50565b6112a3612e98565b826000811180156112b657506001548111155b6112d25760405162461bcd60e51b8152600401610a0690613a67565b60008181526003602052604090206009015460ff166113035760405162461bcd60e51b8152600401610a0690613a97565b60008481526004602052604090208490849061131f9082612ec2565b61133b5760405162461bcd60e51b8152600401610a0690613ac3565b6000841161138b5760405162461bcd60e51b815260206004820152601d60248201527f416d6f756e74206d7573742062652067726561746572207468616e20300000006044820152606401610a06565b600086815260066020908152604080832033845282528083206001600160a01b0389168452909152902080548511156114065760405162461bcd60e51b815260206004820152601b60248201527f496e73756666696369656e74207374616b65642062616c616e636500000000006044820152606401610a06565b60018101541561144c5760405162461bcd60e51b8152602060048201526011602482015270416c726561647920756e7374616b696e6760781b6044820152606401610a06565b848160000160008282546114609190613b04565b90915550506001810185905542600282015560008781526005602090815260408083206001600160a01b038a168452909152812080548792906114a4908490613b04565b9091555050600087815260036020526040812060060180548792906114ca908490613b04565b90915550506040518581526001600160a01b03871690339089907f88567e6595ad345e5250569a2c8d8a50ed9db24198350fa907e42d73faf012d5906020015b60405180910390a4505050506115206001600055565b505050565b8060008111801561153857506002548111155b61157e5760405162461bcd60e51b8152602060048201526017602482015276141c9bdc1bdcd85b08191bd95cc81b9bdd08195e1a5cdd604a1b6044820152606401610a06565b6000828152600760205260409020600881015442116115df5760405162461bcd60e51b815260206004820152601760248201527f566f74696e6720706572696f64206e6f7420656e6465640000000000000000006044820152606401610a06565b600981015460ff16156116345760405162461bcd60e51b815260206004820152601a60248201527f50726f706f73616c20616c72656164792066696e616c697a65640000000000006044820152606401610a06565b60098101805460ff191660011790556000838152600d602090815260409182902082516080810190935233835291908101600481524260208083019190915260006040909201829052835460018101855593825290819020825160039094020180546001600160a01b039094166001600160a01b031985168117825591830151929390929183916001600160a81b03191617600160a01b8360048111156116dd576116dd6133cf565b0217905550604082015181600101556060820151816002015550508060010154837fd43e389be96822a437b9b10a1fac24ddd91a3e0f17beeac43448216875276060836004015484600501544260405161174a939291909283526020830191909152604082015260600190565b60405180910390a3505050565b6000818152600f602052604090206060906110db90612e8b565b60008181526008602052604090206060906110db90612e8b565b6000818152600e602052604081206110db90612ee4565b6117aa612e98565b826000811180156117bd57506001548111155b6117d95760405162461bcd60e51b8152600401610a0690613a67565b60008181526003602052604090206009015460ff1661180a5760405162461bcd60e51b8152600401610a0690613a97565b6000848152600460205260409020849084906118269082612ec2565b6118425760405162461bcd60e51b8152600401610a0690613ac3565b600084116118925760405162461bcd60e51b815260206004820152601d60248201527f416d6f756e74206d7573742062652067726561746572207468616e20300000006044820152606401610a06565b6118a76001600160a01b038616333087612eee565b600086815260066020908152604080832033845282528083206001600160a01b038916845290915281208054909186918391906118e5908490613b17565b909155505060008781526005602090815260408083206001600160a01b038a1684529091528120805487929061191c908490613b17565b909155505060008781526003602052604081206006018054879290611942908490613b17565b90915550506000878152600f6020526040902061195f9033612e76565b506000878152600c60209081526040808320815160808101835233815260028185019081524293820193909352606081018a9052815460018101835591855292909320825160039094020180546001600160a01b039094166001600160a01b03198516811782559151929390929183916001600160a81b03191617600160a01b8360048111156119f1576119f16133cf565b0217905550604082810151600183015560609092015160029091015580518681524260208201526001600160a01b0388169133918a917fc70e72afb083ce5c70c0e0b97bc888f96d934369091fcfaf7daa278b57811ad2910161150a565b600083600081118015611a6457506001548111155b611a805760405162461bcd60e51b8152600401610a0690613a67565b60008181526003602052604090206009015460ff16611ab15760405162461bcd60e51b8152600401610a0690613a97565b60008581526003602052604090206005015485906001600160a01b03163314611b125760405162461bcd60e51b81526020600482015260136024820152722737ba10383937b532b1ba1031b932b0ba37b960691b6044820152606401610a06565b6000855111611b5b5760405162461bcd60e51b81526020600482015260156024820152745469746c652063616e6e6f7420626520656d70747960581b6044820152606401610a06565b6000845111611bac5760405162461bcd60e51b815260206004820152601b60248201527f4465736372697074696f6e2063616e6e6f7420626520656d70747900000000006044820152606401610a06565b60028054906000611bbc8361392c565b90915550506002805460008181526007602052604090208181556001810189905590918101611beb8882613993565b5060038101611bfa8782613993565b504260078201819055611c119062093a8090613b17565b60088201556009810180546001600160a81b03191661010033021790556000888152600360205260408120600701805491611c4b8361392c565b90915550506000888152600860205260409020611c689083612f5b565b50336000908152601060205260409020611c829083612f5b565b506000888152600c60209081526040808320815160808101835233815260018185018181524294830194909452606082018690528254908101835591855292909320825160039094020180546001600160a01b039094166001600160a01b03198516811782559151929390929183916001600160a81b03191617600160a01b836004811115611d1357611d136133cf565b021790555060408201518160010155606082015181600201555050600d60008381526020019081526020016000206040518060800160405280336001600160a01b0316815260200160016004811115611d6e57611d6e6133cf565b81524260208083019190915260006040909201829052835460018101855593825290819020825160039094020180546001600160a01b039094166001600160a01b031985168117825591830151929390929183916001600160a81b03191617600160a01b836004811115611de457611de46133cf565b021790555060408201518160010155606082015181600201555050336001600160a01b031688837f3adb4b5b85d780e775af66d5efff3183afc4c951384c4fe9763eb5e0406b15c642604051611e3c91815260200190565b60405180910390a4509695505050505050565b600081815260046020526040812081908190611e6a90612e8b565b905060005b8151811015611ef25760008581526006602090815260408083206001600160a01b038a16845290915281208351909190849084908110611eb157611eb1613a51565b60200260200101516001600160a01b03166001600160a01b031681526020019081526020016000206000015483611ee89190613b17565b9250600101611e6f565b5090949350505050565b611f04612e98565b81600081118015611f1757506001548111155b611f335760405162461bcd60e51b8152600401610a0690613a67565b60008181526003602052604090206009015460ff16611f645760405162461bcd60e51b8152600401610a0690613a97565b600083815260046020526040902083908390611f809082612ec2565b611f9c5760405162461bcd60e51b8152600401610a0690613ac3565b600085815260066020908152604080832033845282528083206001600160a01b0388168452909152902060018101546120175760405162461bcd60e51b815260206004820152601860248201527f4e6f20756e7374616b696e6720696e2070726f677265737300000000000000006044820152606401610a06565b62069780816002015461202a9190613b17565b4210156120795760405162461bcd60e51b815260206004820152601e60248201527f556e7374616b696e6720706572696f64206e6f7420636f6d706c6574656400006044820152606401610a06565b60018101805460009182905560028301919091556120a16001600160a01b0387163383612f67565b50505050506120b06001600055565b5050565b6120bc612e98565b816000811180156120cf57506001548111155b6120eb5760405162461bcd60e51b8152600401610a0690613a67565b60008181526003602052604090206009015460ff1661211c5760405162461bcd60e51b8152600401610a0690613a97565b6000838152600460205260409020839083906121389082612ec2565b6121545760405162461bcd60e51b8152600401610a0690613ac3565b600085815260066020908152604080832033845282528083206001600160a01b0388168452909152902080546121c05760405162461bcd60e51b81526020600482015260116024820152704e6f207374616b65642062616c616e636560781b6044820152606401610a06565b805460006127106121d361138884613b2a565b6121dd9190613b41565b905060006121eb8284613b04565b60008086558a81526005602090815260408083206001600160a01b038d168452909152812080549293508592909190612225908490613b04565b90915550506000898152600360205260408120600601805485929061224b908490613b04565b9091555061226590506001600160a01b0389163383612f67565b60408051828152602081018490526001600160a01b038a169133918c917f94fc4285bdfe8bb092a64cbf8bd97ddd51aa713089357b67fcfb5089f08477e0910160405180910390a4505050505050506120b06001600055565b6000818152600e602052604090206060906110db90612e8b565b600d60205281600052604060002081815481106122f457600080fd5b60009182526020909120600390910201805460018201546002909201546001600160a01b0382169450600160a01b90910460ff16925084565b60008281526004602052604081206110ba9083612ec2565b6001600160a01b03811660009081526010602052604090206060906110db90612e8b565b8460008111801561237c57506001548111155b6123985760405162461bcd60e51b8152600401610a0690613a67565b60008181526003602052604090206009015460ff166123c95760405162461bcd60e51b8152600401610a0690613a97565b60008681526003602052604090206005015486906001600160a01b0316331461242a5760405162461bcd60e51b81526020600482015260136024820152722737ba10383937b532b1ba1031b932b0ba37b960691b6044820152606401610a06565b60008651116124725760405162461bcd60e51b81526020600482015260146024820152734e616d652063616e6e6f7420626520656d70747960601b6044820152606401610a06565b600087815260036020526040902060010161248d8782613993565b5060008781526003602052604090206002016124a98682613993565b506000878152600360208190526040909120016124c68582613993565b5060008781526003602052604090206004016124e28482613993565b50604051339088907f686b57516544110759a10f7b6fe998bf9fea5b41892515142f718ca955f80fd290600090a350505050505050565b8160008111801561252c57506002548111155b6125725760405162461bcd60e51b8152602060048201526017602482015276141c9bdc1bdcd85b08191bd95cc81b9bdd08195e1a5cdd604a1b6044820152606401610a06565b6000838152600760208190526040909120908101544210156125cb5760405162461bcd60e51b8152602060048201526012602482015271159bdd1a5b99c81b9bdd081cdd185c9d195960721b6044820152606401610a06565b806008015442111561260e5760405162461bcd60e51b815260206004820152600c60248201526b159bdd1a5b99c8195b99195960a21b6044820152606401610a06565b600084815260096020908152604080832033845290915290205460ff16156126685760405162461bcd60e51b815260206004820152600d60248201526c105b1c9958591e481d9bdd1959609a1b6044820152606401610a06565b600981015460ff16156126bd5760405162461bcd60e51b815260206004820152601a60248201527f50726f706f73616c20616c726561647920636f6d706c657465640000000000006044820152606401610a06565b60006126cd338360010154611e4f565b9050600081116127115760405162461bcd60e51b815260206004820152600f60248201526e2737903b37ba34b733903837bbb2b960891b6044820152606401610a06565b6000858152600960209081526040808320338085529083528184208054600160ff1991821617909155898552600a84528285208286528452828520869055898552600b845282852082865284528285208054909116891515179055888452600e90925290912061278091612e76565b5083156127a6578082600401600082825461279b9190613b17565b909155506127c09050565b808260050160008282546127ba9190613b17565b90915550505b808260060160008282546127d49190613b17565b90915550506000858152600d602090815260408083208151608081018352338152600381850181815242948301949094526060820187905282546001810184559286529390942084519190930290920180546001600160a01b039093166001600160a01b031984168117825591519092909183916001600160a81b03191617600160a01b83600481111561286a5761286a6133cf565b0217905550604082810151600183015560609283015160029092019190915580518615158152602081018490524291810191909152339187917f72977ad883f7d5821678747ec7baf0a5afb5fcb5da86f061dbd347b408edef44910160405180910390a35050505050565b6000818152600460205260408120819081906128f090612e8b565b905060005b8151811015611ef25760008581526006602090815260408083206001600160a01b038a1684529091528120835190919084908490811061293757612937613a51565b60200260200101516001600160a01b03166001600160a01b03168152602001908152602001600020600001548361296e9190613b17565b92506001016128f5565b600c60205281600052604060002081815481106122f457600080fd5b6000818152600f602052604081206110db90612ee4565b60006060806060806000806000806000606060008c1180156129cf57506001548c11155b6129eb5760405162461bcd60e51b8152600401610a0690613a67565b60008c81526003602090815260408083206004909252909120612a0d90612e8b565b91508060000154816001018260020183600301846004018560050160009054906101000a90046001600160a01b03168660060154876007015488600801548960090160009054906101000a900460ff168b898054612a6a906138dc565b80601f0160208091040260200160405190810160405280929190818152602001828054612a96906138dc565b8015612ae35780601f10612ab857610100808354040283529160200191612ae3565b820191906000526020600020905b815481529060010190602001808311612ac657829003601f168201915b50505050509950888054612af6906138dc565b80601f0160208091040260200160405190810160405280929190818152602001828054612b22906138dc565b8015612b6f5780601f10612b4457610100808354040283529160200191612b6f565b820191906000526020600020905b815481529060010190602001808311612b5257829003601f168201915b50505050509850878054612b82906138dc565b80601f0160208091040260200160405190810160405280929190818152602001828054612bae906138dc565b8015612bfb5780601f10612bd057610100808354040283529160200191612bfb565b820191906000526020600020905b815481529060010190602001808311612bde57829003601f168201915b50505050509750868054612c0e906138dc565b80601f0160208091040260200160405190810160405280929190818152602001828054612c3a906138dc565b8015612c875780601f10612c5c57610100808354040283529160200191612c87565b820191906000526020600020905b815481529060010190602001808311612c6a57829003601f168201915b505050505096509b509b509b509b509b509b509b509b509b509b509b505091939597999b90929496989a50565b6060600c6000838152602001908152602001600020805480602002602001604051908101604052809291908181526020016000905b82821015610e0e57600084815260209081902060408051608081019091526003850290910180546001600160a01b03811683529192909190830190600160a01b900460ff166004811115612d3f57612d3f6133cf565b6004811115612d5057612d506133cf565b81526020016001820154815260200160028201548152505081526020019060010190612ce9565b60008381526006602090815260408083206001600160a01b03808716855290835281842090851684529091528120600181015415801590612dca5750620697808160020154612dc69190613b17565b4210155b95945050505050565b600081815260076020526040812060048101546005820154600683015460088401549294919390928291428281119284929110612e135760009150612e26565b428160080154612e239190613b04565b91505b8515612e615785612e38896064613b2a565b612e429190613b41565b945085612e50886064613b2a565b612e5a9190613b41565b9350612e6a565b60009450600093505b50919395979092949650565b60006110ba836001600160a01b038416612f98565b606060006110ba83612fe7565b600260005403612ebb57604051633ee5aeb560e01b815260040160405180910390fd5b6002600055565b6001600160a01b038116600090815260018301602052604081205415156110ba565b60006110db825490565b6040516001600160a01b038481166024830152838116604483015260648201839052612f559186918216906323b872dd906084015b604051602081830303815290604052915060e01b6020820180516001600160e01b038381831617835250505050613043565b50505050565b60006110ba8383612f98565b6040516001600160a01b0383811660248301526044820183905261152091859182169063a9059cbb90606401612f23565b6000818152600183016020526040812054612fdf575081546001818101845560008481526020808220909301849055845484825282860190935260409020919091556110db565b5060006110db565b60608160000180548060200260200160405190810160405280929190818152602001828054801561303757602002820191906000526020600020905b815481526020019060010190808311613023575b50505050509050919050565b600080602060008451602086016000885af180613066576040513d6000823e3d81fd5b50506000513d9150811561307e57806001141561308b565b6001600160a01b0384163b155b15612f5557604051635274afe760e01b81526001600160a01b0385166004820152602401610a06565b6000602082840312156130c657600080fd5b5035919050565b6000815180845260005b818110156130f3576020818501810151868301820152016130d7565b506000602082860101526020601f19601f83011685010191505092915050565b8b81528a60208201526101606040820152600061313461016083018c6130cd565b8281036060840152613146818c6130cd565b608084019a909a52505060a081019690965260c086019490945260e085019290925261010084015215156101208301526001600160a01b031661014090910152949350505050565b634e487b7160e01b600052604160045260246000fd5b604051601f8201601f191681016001600160401b03811182821017156131cc576131cc61318e565b604052919050565b600082601f8301126131e557600080fd5b81356001600160401b038111156131fe576131fe61318e565b613211601f8201601f19166020016131a4565b81815284602083860101111561322657600080fd5b816020850160208301376000918101602001919091529392505050565b80356001600160a01b038116811461325a57600080fd5b919050565b600082601f83011261327057600080fd5b81356001600160401b038111156132895761328961318e565b8060051b613299602082016131a4565b918252602081850181019290810190868411156132b557600080fd5b6020860192505b838310156132de576132cd83613243565b8252602092830192909101906132bc565b9695505050505050565b600080600080600060a0868803121561330057600080fd5b85356001600160401b0381111561331657600080fd5b613322888289016131d4565b95505060208601356001600160401b0381111561333e57600080fd5b61334a888289016131d4565b94505060408601356001600160401b0381111561336657600080fd5b613372888289016131d4565b93505060608601356001600160401b0381111561338e57600080fd5b61339a888289016131d4565b92505060808601356001600160401b038111156133b657600080fd5b6133c28882890161325f565b9150509295509295909350565b634e487b7160e01b600052602160045260246000fd5b6005811061340357634e487b7160e01b600052602160045260246000fd5b9052565b602080825282518282018190526000918401906040840190835b8181101561347557835180516001600160a01b031684526020808201519061344b908601826133e5565b50604081810151908501526060908101519084015260209390930192608090920191600101613421565b509095945050505050565b8a81526101406020820152600061349b61014083018c6130cd565b82810360408401526134ad818c6130cd565b905082810360608401526134c1818b6130cd565b905082810360808401526134d5818a6130cd565b6001600160a01b039890981660a0840152505060c081019490945260e084019290925261010083015215156101209091015295945050505050565b60008060006060848603121561352557600080fd5b8335925061353560208501613243565b915061354360408501613243565b90509250925092565b600081518084526020840193506020830160005b828110156135875781516001600160a01b0316865260209586019590910190600101613560565b5093949350505050565b6020815260006110ba602083018461354c565b600080604083850312156135b757600080fd5b823591506135c760208401613243565b90509250929050565b6000806000606084860312156135e557600080fd5b833592506135f560208501613243565b929592945050506040919091013590565b602080825282518282018190526000918401906040840190835b81811015613475578351835260209384019390920191600101613620565b60008060006060848603121561365357600080fd5b8335925060208401356001600160401b0381111561367057600080fd5b61367c868287016131d4565b92505060408401356001600160401b0381111561369857600080fd5b6136a4868287016131d4565b9150509250925092565b600080604083850312156136c157600080fd5b6136ca83613243565b946020939093013593505050565b600080604083850312156136eb57600080fd5b50508035926020909101359150565b6001600160a01b03851681526080810161371760208301866133e5565b60408201939093526060015292915050565b60006020828403121561373b57600080fd5b6110ba82613243565b600080600080600060a0868803121561375c57600080fd5b8535945060208601356001600160401b0381111561377957600080fd5b613785888289016131d4565b94505060408601356001600160401b038111156137a157600080fd5b6137ad888289016131d4565b93505060608601356001600160401b038111156137c957600080fd5b6137d5888289016131d4565b92505060808601356001600160401b038111156137f157600080fd5b6133c2888289016131d4565b6000806040838503121561381057600080fd5b823591506020830135801515811461382757600080fd5b809150509250929050565b8b81526101606020820152600061384d61016083018d6130cd565b828103604084015261385f818d6130cd565b90508281036060840152613873818c6130cd565b90508281036080840152613887818b6130cd565b6001600160a01b038a1660a085015260c0840189905260e08401889052610100840187905285151561012085015283810361014085015290506138ca818561354c565b9e9d5050505050505050505050505050565b600181811c908216806138f057607f821691505b60208210810361391057634e487b7160e01b600052602260045260246000fd5b50919050565b634e487b7160e01b600052601160045260246000fd5b60006001820161393e5761393e613916565b5060010190565b601f82111561152057806000526020600020601f840160051c8101602085101561396c5750805b601f840160051c820191505b8181101561398c5760008155600101613978565b5050505050565b81516001600160401b038111156139ac576139ac61318e565b6139c0816139ba84546138dc565b84613945565b6020601f8211600181146139f457600083156139dc5750848201515b600019600385901b1c1916600184901b17845561398c565b600084815260208120601f198516915b82811015613a245787850151825560209485019460019092019101613a04565b5084821015613a425786840151600019600387901b60f8161c191681555b50505050600190811b01905550565b634e487b7160e01b600052603260045260246000fd5b602080825260169082015275141c9bda9958dd08191bd95cc81b9bdd08195e1a5cdd60521b604082015260600190565b60208082526012908201527150726f6a656374206e6f742061637469766560701b604082015260600190565b60208082526021908201527f546f6b656e206e6f7420616363657074656420666f7220676f7665726e616e636040820152606560f81b606082015260800190565b818103818111156110db576110db613916565b808201808211156110db576110db613916565b80820281158282048414176110db576110db613916565b600082613b5e57634e487b7160e01b600052601260045260246000fd5b50049056fea264697066735822122069c499644034ee2de468b2193b6f51ff9a907a7f3376026328ce825a3af6096464736f6c634300081c0033",
  "linkReferences": {},
  "deployedLinkReferences": {}
}